{
  "abi": [
    {
      "inputs": [],
      "stateMutability": "nonpayable",
      "type": "constructor"
    },
    {
      "inputs": [],
      "name": "returns100",
      "outputs": [
        {
          "internalType": "uint256",
          "name": "",
          "type": "uint256"
        }
      ],
      "stateMutability": "view",
      "type": "function"
    }
  ],
  "bytecode": {
    "object": "0x608060405234801561001057600080fd5b50606460008190555060b3806100276000396000f3fe6080604052348015600f57600080fd5b506004361060285760003560e01c80633fba859614602d575b600080fd5b60336047565b604051603e91906064565b60405180910390f35b60005481565b6000819050919050565b605e81604d565b82525050565b6000602082019050607760008301846057565b9291505056fea2646970667358221220b22c6a6da184c73e36bae86ea69b2b1cdbd31c6d914642132956e3bb0e38121864736f6c63430008130033",
    "linkReferences": {}
  },
  "methodIdentifiers": {
    "returns100()": "3fba8596"
  },
  "id": 0
}